:020000040000FA
:0400000058EF1AF0AB
:1008000000564F4C54414A453A200041445245530A
:100810003A2000252E326600696E66006E616E0019
:100820002564000A0000000E0001816F57C084F0AB
:1008300058C085F059C086F05AC087F087BF25EFB1
:1008400004F023EF04F039EF04F0010E816F84C04F
:1008500001F085C002F086C003F087C004F050ECC0
:100860001CF001C084F002C085F003C086F004C013
:1008700087F0000E0001836F000E826FDFC071F001
:10088000E0C072F08151D8B448EF04F04AEF04F0B0
:100890005EEF04F08151D8A450EF04F052EF04F061
:1008A00058EF04F0000E676F2B0E666F5CEF04F0DC
:1008B000000E676F2D0E666F66C081F084C001F078
:1008C00085C002F086C003F087C004F0CCEC16F0BF
:1008D00001040210D8A46FEF04F071EF04F0A4EF4C
:1008E00004F000018151D8B478EF04F07AEF04F0FD
:1008F00083EF04F081C0A4F17107D8A07207000E45
:10090000836F010E826FA40E8225056E010E832176
:10091000066E180E076E080E086E17EC1BF000012D
:10092000FD0E7127FF0E722355C013F056C014F050
:10093000A40E156E010E166E71C017F072C018F07D
:10094000E8EC19F00EEF09F084C001F085C002F068
:1009500086C003F087C004F0CCEC16F00150021002
:10096000D8A4B5EF04F0B7EF04F0D7EF04F000011E
:100970008151D8B4BEEF04F0C0EF04F0C9EF04F029
:1009800081C0A4F17107D8A07207000E836F010E19
:10099000826FA40E8225056E010E8321066E1C0E49
:1009A000076E080E086E17EC1BF08FEF04F0000EB8
:1009B0000001886F000E896F800E8A6F3F0E8B6F6B
:1009C000000E706F000E6F6F84C001F085C002F0E2
:1009D00086C003F087C004F0000E056E000E066EA0
:1009E000000E076E000E086ECDEC18F0D8B0FBEFCD
:1009F00004F0FDEF04F0DCEF05F00AEF05F073C042
:100A000088F074C089F075C08AF076C08BF0000160
:100A10006F4B702B88C00FF089C010F08AC011F0A6
:100A20008BC012F0000E136E000E146E200E156EA9
:100A3000410E166E6FEC0BF00FC073F010C074F027
:100A400011C075F012C076F000017351845D016E23
:100A500074518559026E75518659036E76518759C6
:100A6000046E25EC1AF004BE41EF05F004500310AB
:100A7000021009E1020E015CD8A041EF05F043EF3E
:100A800005F0FFEF04F073C028F074C029F075C0C2
:100A90002AF076C02BF084C02CF085C02DF086C0E3
:100AA0002EF087C02FF04AEC16F0D8A05AEF05F0D0
:100AB0005CEF05F0FFEF04F000018851845D016EEA
:100AC00089518559026E8A518659036E8B51875917
:100AD000046E25EC1AF004BE7BEF05F00450031001
:100AE000021007E1020E015CD8B079EF05F07BEF50
:100AF00005F0C3EF05F088C084F089C085F08AC096
:100B000086F08BC087F0DCEF05F088C028F089C044
:100B100029F08AC02AF08BC02BF0000E2C6E000E3C
:100B20002D6E200E2E6E410E2F6E84EC0DF028C01F
:100B300088F029C089F02AC08AF02BC08BF0000110
:100B40006F07D8A070078851845D016E895185595F
:100B5000026E8A518659036E8B518759046E25ECBB
:100B60001AF004BEC1EF05F004500310021007E1B3
:100B7000020E015CD8B0BFEF05F0C1EF05F0C3EF86
:100B800005F07BEF05F084C028F085C029F086C011
:100B90002AF087C02BF088C02CF089C02DF08AC0C5
:100BA0002EF08BC02FF04AEC16F0D8A0DAEF05F04B
:100BB000DCEF05F085EF05F05BC069F069C06AF015
:100BC0000001E2BFE6EF05F0E8EF05F0EEEF05F01B
:100BD000E1C062F0E2C063F0F2EF05F0000E636F77
:100BE000060E626F62C06DF063C06EF06D4B6E2BCF
:100BF000660E6A19D8A4FFEF05F001EF06F021EFA9
:100C000006F070BF08EF06F006EF06F014EF06F0EE
:100C1000000E886F000E896F800E8A6F3F0E8B6FFB
:100C2000000E706F000E6F6F670E6919D8B41BEF5E
:100C300006F01DEF06F021EF06F06F516D277051A1
:100C40006E23000E786F000E776F84C079F085C038
:100C50007AF086C07BF087C07CF088C073F089C0D2
:100C600074F08AC075F08BC076F0B2EF06F079C0F0
:100C700028F07AC029F07BC02AF07CC02BF088C015
:100C80002CF089C02DF08AC02EF08BC02FF084ECA0
:100C90000DF028C041F029C042F02AC043F02BC01B
:100CA00044F0EFEC11F041C07DF042C07EF043C053
:100CB0007FF044C080F07DC001F07EC002F07FC0B4
:100CC00003F080C004F0C7EC15F001C06BF002C067
:100CD0006CF079C028F07AC029F07BC02AF07CC083
:100CE0002BF07DC013F07EC014F07FC015F080C0E3
:100CF00016F088C00FF089C010F08AC011F08BC0C8
:100D000012F06FEC0BF00FC02CF010C02DF011C0E2
:100D10002EF012C02FF0EBEC1BF028C079F029C0A8
:100D20007AF02AC07BF02BC07CF088C028F089C004
:100D300029F08AC02AF08BC02BF0000E2C6E000E1A
:100D40002D6E200E2E6E410E2F6E84EC0DF028C0FD
:100D500088F029C089F02AC08AF02BC08BF00001EE
:100D6000774B782B6D51775D7851800A5C6E6E51B0
:100D7000800A5C58D8A0BFEF06F0C1EF06F037EF4D
:100D800006F088C00FF089C010F08AC011F08BC047
:100D900012F0000E136E000E146EA00E156E400EB3
:100DA000166E6FEC0BF00FC07DF010C07EF011C01E
:100DB0007FF012C080F079C028F07AC029F07BC0A3
:100DC0002AF07CC02BF07DC02CF07EC02DF07FC0BF
:100DD0002EF080C02FF04AEC16F0D8B0F2EF06F0FB
:100DE000F4EF06F0FFEF06F0000E00017D6F000E3D
:100DF0007E6F000E7F6F000E806F28EF07F079C0C6
:100E000001F07AC002F07BC003F07CC004F07DC02A
:100E100005F07EC006F07FC007F080C008F0CDEC82
:100E200018F0D8A016EF07F018EF07F028EF07F03A
:100E300000016BB11EEF07F020EF07F028EF07F07D
:100E4000000E7D6F000E7E6F000E7F6F000E806FB4
:100E500084C001F085C002F086C003F087C004F0B2
:100E60007DC005F07EC006F07FC007F080C008F0AE
:100E70000FEC09F001C079F002C07AF003C07BF0FA
:100E800004C07CF079C028F07AC029F07BC02AF039
:100E90007CC02BF0000E136E000E146E200E156E2B
:100EA000410E166E73C00FF074C010F075C011F0D3
:100EB00076C012F06FEC0BF00FC02CF010C02DF0CC
:100EC00011C02EF012C02FF04AEC16F0D8A06BEF34
:100ED00007F06DEF07F096EF07F000016F4B702BF6
:100EE00073C00FF074C010F075C011F076C012F02E
:100EF000000E136E000E146E200E156E410E166E4F
:100F00006FEC0BF00FC073F010C074F011C075F0EF
:100F100012C076F0660E00016A19D8A492EF07F0AD
:100F200094EF07F096EF07F06D4B6E2B73C088F0CF
:100F300074C089F075C08AF076C08BF06FC060F025
:100F400070C061F0000E0001686F000E656F000E4A
:100F5000646F000E786F000E776F94EF08F079C021
:100F600028F07AC029F07BC02AF07CC02BF088C022
:100F70002CF089C02DF08AC02EF08BC02FF084ECAD
:100F80000DF028C041F029C042F02AC043F02BC028
:100F900044F0EFEC11F041C07DF042C07EF043C060
:100FA0007FF044C080F07DC001F07EC002F07FC0C1
:100FB00003F080C004F0C7EC15F002BEEBEF07F0C1
:100FC000025007E10A0E015CD8B0E9EF07F0EBEF41
:100FD00007F0FBEF07F07DC001F07EC002F07FC09C
:100FE00003F080C004F0C7EC15F001C06BF002C044
:100FF0006CF000EF08F0000E00016C6F090E6B6FD3
:1010000000016851D8A407EF08F009EF08F031EFAC
:1010100008F061BF10EF08F00EEF08F031EF08F0B4
:10102000A40E8225D96E010E8321DA6E2E0EDF6E9C
:10103000824B832B7107D8A07207010E686F31EFC6
:1010400008F0A40E8225D96E010E8321DA6E300ECF
:10105000DF6E824B832B7107D8A072076407D8A07C
:10106000650764516511D8A438EF08F03AEF08F02D
:1010700021EF08F0A40E8225D96E010E8321DA6ECD
:101080006B51300FDF6E824B832B7107D8A0720734
:1010900079C028F07AC029F07BC02AF07CC02BF000
:1010A0007DC013F07EC014F07FC015F080C016F034
:1010B00088C00FF089C010F08AC011F08BC012F008
:1010C0006FEC0BF00FC02CF010C02DF011C02EF003
:1010D00012C02FF0EBEC1BF028C079F029C07AF099
:1010E0002AC07BF02BC07CF088C028F089C029F092
:1010F0008AC02AF08BC02BF0000E2C6E000E2D6ED5
:10110000200E2E6E410E2F6E84EC0DF028C088F05C
:1011100029C089F02AC08AF02BC08BF0000160073B
:10112000D8A06107774B782B6D51775D7851800A95
:101130005C6E6E51800A5C58D8B0A1EF08F0A3EF46
:1011400008F0B1EF08F083BFAFEF08F0835109E179
:101150004B0E825DD8A0AFEF08F0B1EF08F0AFEF13
:1011600007F0000E786F4F0E776FA40E7725D96EBB
:10117000010E7821DA6EDF6AA40E5C6E010E5D6EE0
:1011800082515C5E83515D5A77515C24016E7851C7
:101190005D20026EA40E036E010E046E82C005F087
:1011A00083C006F0C3EC1BF000018251775D826FB3
:1011B00083517859836F8151D8A4E1EF08F0E4EFAF
:1011C00008F0010EE5EF08F0000E776F786B8151A3
:1011D000D8B4EDEF08F0EFEF08F0FAEF08F082076F
:1011E000D8A08307A40E8225D96E010E8321DA6E62
:1011F00081C0DFFF7751715F7851725B55C013F08A
:1012000056C014F0A40E8225156E010E8321166EB1
:1012100071C017F072C018F0E8EC19F01200045019
:10122000800B0D6E045004240F6E03AE1AEF09F00C
:101230001CEF09F01DEF09F00F800F50D8B423EF19
:1012400009F025EF09F03AEF09F00F28D8A42BEFA9
:1012500009F02DEF09F035EF09F0000E016E000ED8
:10126000026E000E036E000E046E038E000E046EFE
:1012700042EF09F0000E016E000E026E000E036ECA
:10128000000E046E0850800B0E6E0D500E18D8B470
:101290004CEF09F04EEF09F04FEF09F00D8C0850BC
:1012A00008240E6E07AE57EF09F059EF09F05AEF18
:1012B00009F00E800E50D8B460EF09F062EF09F02B
:1012C00077EF09F00E28D8A468EF09F06AEF09F06B
:1012D00072EF09F0000E056E000E066E000E076E2E
:1012E000000E086E078E000E086E7FEF09F0000EEC
:1012F000056E000E066E000E076E000E086E0F5093
:101300000E5CD8B086EF09F088EF09F0AFEF09F076
:101310000DAC8DEF09F08FEF09F091EF09F0800E21
:101320000D1A0FC010F00EC00FF010C00EF001C06B
:1013300010F005C001F010C005F002C010F006C0AA
:1013400002F010C006F003C010F007C003F010C098
:1013500007F004C010F008C004F010C008F0000E40
:10136000106E0F500EC009F00A6A095E000E0A5A8C
:101370000ABEC4EF09F00A5009E11A0E095CD8A0B0
:10138000C4EF09F0C6EF09F0FDEF09F001500210BB
:1013900003100410D8A4CFEF09F0D2EF09F0010E2A
:1013A000D3EF09F0000E106E000E016E000E026EFB
:1013B000000E036E000E046E0EC00FF006EF0AF072
:1013C00010A0E5EF09F0E7EF09F0EDEF09F0D89094
:1013D00010300109106EEFEF09F0D890103201A023
:1013E000F4EF09F0F6EF09F0F7EF09F0108E04348E
:1013F00004320332023201320F2A0E500F5CD8A0A1
:1014000004EF0AF006EF0AF0E0EF09F00DBC0BEF75
:101410000AF00DEF0AF04DEF0AF00F50D8A413EFC9
:101420000AF015EF0AF01FEF0AF0000E016E000E31
:10143000026E000E036E000E046E6EEF0BF0055090
:10144000012606500222075003220850042204A05D
:101450002CEF0AF02EEF0AF0DAEF0AF010A033EFCB
:101460000AF035EF0AF03BEF0AF0D890103001098E
:10147000106E3DEF0AF0D890103201A042EF0AF052
:1014800044EF0AF045EF0AF0108E043404320332C0
:10149000023201320F2ADAEF0AF00550015C0650E1
:1014A0000258075003580450800A096E0850800AF9
:1014B0000958D8B05EEF0AF060EF0AF08BEF0AF03F
:1014C0000150055C096E025006580A6E0350075819
:1014D0000B6E045008580C6EFF0E0924016EFF0EAF
:1014E0000A20026EFF0E0B20036EFF0E0C20046E0E
:1014F000800E0D1A106C1050D8A481EF0AF083EF03
:101500000AF093EF0AF0010E0126000E02220322D8
:10151000042293EF0AF00550015E0650025A07506C
:10152000035A0850045A0150021003100410D8A4A2
:101530009CEF0AF09EEF0AF0D3EF0AF01050D8A407
:10154000A4EF0AF0A6EF0AF0D3EF0AF0000E016E46
:10155000000E026E000E036E000E046E6EEF0BF0B6
:10156000D890013602360336043610AEBAEF0AF0D0
:10157000BCEF0AF0BDEF0AF0018010A0C2EF0AF044
:10158000C4EF0AF0C8EF0AF0D8801036CAEF0AF0AC
:10159000D89010360F50D8B4D0EF0AF0D2EF0AF03E
:1015A000D3EF0AF00F0603AED8EF0AF0DAEF0AF035
:1015B000B0EF0AF0000E0E6E10AEE1EF0AF0E3EFAE
:1015C0000AF0FBEF0AF010C009F07F0E0916D8B43C
:1015D000ECEF0AF0EEEF0AF0F2EF0AF0010E0E6EF9
:1015E000FBEF0AF001A0F7EF0AF0F9EF0AF0FBEFCA
:1015F0000AF0EEEF0AF00E50D8B401EF0BF003EF53
:101600000BF02EEF0BF0010E0126000E022203223A
:10161000042204A00EEF0BF010EF0BF02EEF0BF0F6
:1016200001C009F002C00AF003C00BF004C00CF0C6
:101630000C340C320B320A32093209C001F00AC0F4
:1016400002F00BC003F00CC004F00F28D8B42BEF4D
:101650000BF02DEF0BF02EEF0BF00F2A0F28D8B464
:1016600034EF0BF036EF0BF03EEF0BF00F50D8A439
:101670003CEF0BF03EEF0BF050EF0BF0000E016E65
:10168000000E026E000E036E000E046E0F50D8A402
:101690004CEF0BF04EEF0BF050EF0BF0000E0D6E19
:1016A0000FA055EF0BF057EF0BF05AEF0BF0038E36
:1016B0005BEF0BF0039ED8900F30046E0DAE63EF1E
:1016C0000BF065EF0BF066EF0BF0048E01C001F03C
:1016D00002C002F003C003F004C004F01200125074
:1016E000800B1B6E12501224216E11AE7AEF0BF09C
:1016F0007CEF0BF07DEF0BF021802150D8B483EF0D
:101700000BF085EF0BF098EF0BF02128D8A48BEFAE
:101710000BF08DEF0BF095EF0BF0000E0F6E000E3F
:10172000106E000E116E000E126E118EA0EF0BF0F7
:10173000000E0F6E000E106E000E116E000E126E77
:101740001650800B1B1A16501624206E15AEABEFE8
:101750000BF0ADEF0BF0AEEF0BF020802050D8B4C3
:10176000B4EF0BF0B6EF0BF0C9EF0BF02028D8A4C4
:10177000BCEF0BF0BEEF0BF0C6EF0BF0000E136EDC
:10178000000E146E000E156E000E166E158ED1EF43
:101790000BF0000E136E000E146E000E156E000E90
:1017A000166E2050D8B4D7EF0BF0D9EF0BF0E1EF65
:1017B0000BF02150D8A4DFEF0BF0E1EF0BF0EBEFD3
:1017C0000BF0000E0F6E000E106E000E116E000E6C
:1017D000126E83EF0DF015500F02F3CF26F0F4CF09
:1017E00027F026501C6E1D6A1E6A1F6A2750226E43
:1017F000236A246A256A14501002F3CF26F0F4CF2E
:1018000027F026501C26000E1D221E221F222750C4
:101810002226000E23222422252213501102F3CF68
:1018200026F0F4CF27F026501C26000E1D221E2283
:101830001F2227502226000E2322242225221EC0EA
:101840001FF01DC01EF01CC01DF01C6A13501002BA
:10185000F3CF26F0F4CF27F026501C2627501D2268
:10186000000E1E22000E1F2214500F02F3CF26F08E
:10187000F4CF27F026501C2627501D22000E1E22D2
:10188000000E1F221EC01FF01DC01EF01CC01DF048
:101890001C6A13500F02F3CF26F0F4CF27F0265026
:1018A0001C2627501D22000E1E22000E1F2215503E
:1018B0001002F3CF26F0F4CF27F02650222627502F
:1018C0002322000E2422000E252214501102F3CFF1
:1018D00026F0F4CF27F02650222627502322000E90
:1018E0002422000E252215501102F3CF26F0F4CF4A
:1018F00027F02650176E2750186E196A1A6A19C0F9
:101900001AF018C019F017C018F0176A17502226DD
:1019100018502322195024221A5025221CC017F0D7
:101920001DC018F01EC019F01FC01AF0190E9EEF4E
:101930000CF0D8901A32193218321732E82E99EF7B
:101940000CF01750222618502322195024221A5026
:1019500025221EC01FF01DC01EF01CC01DF01C6AF9
:10196000205021C017F0186A1726000E1822820E88
:101970001724266EFF0E1820276ED4EF0CF0D89097
:1019800022362336243625361FAEC9EF0CF0CBEFB6
:101990000CF0CCEF0CF02280D8901C361D361E3691
:1019A0001F362606D8A0270624AED9EF0CF0DBEFB1
:1019B0000CF0BFEF0CF0000E206E1FAEE2EF0CF04B
:1019C000E4EF0CF008EF0DF0FF0E1C14176EFF0E85
:1019D0001D14186EFF0E1E14196E7F0E1F141A6E42
:1019E0001750181019101A10D8B4F9EF0CF0FBEFBB
:1019F0000CF0FFEF0CF0010E206E08EF0DF022A0AE
:101A000004EF0DF006EF0DF008EF0DF0FBEF0CF01A
:101A10002050D8B40EEF0DF010EF0DF034EF0DF0B4
:101A2000010E2226000E23222422252225A01BEFB0
:101A30000DF01DEF0DF034EF0DF022C017F023C0B4
:101A400018F024C019F025C01AF01A341A321932CD
:101A50001832173217C022F018C023F019C024F032
:101A60001AC025F0264A272A27BE3FEF0DF027503F
:101A700008E12628D8A03FEF0DF041EF0DF04BEF25
:101A80000DF0000E226E000E236E800E246E7F0E6F
:101A9000256E79EF0DF027BE58EF0DF0275006E1C7
:101AA0002604D8B056EF0DF058EF0DF064EF0DF0AE
:101AB000000E226E000E236E000E246E000E256EA8
:101AC000000E1B6E79EF0DF026C021F0FF0E2216DE
:101AD000FF0E23167F0E2416000E251621A073EF8D
:101AE0000DF075EF0DF076EF0DF0248ED8902130CB
:101AF000256E1B50251222C00FF023C010F024C009
:101B000011F025C012F012002B50800B386E2B50B4
:101B10002B243F6E2AAE8FEF0DF091EF0DF092EF78
:101B20000DF03F803F50D8B498EF0DF09AEF0DF0D4
:101B3000AFEF0DF03F28D8A4A0EF0DF0A2EF0DF00D
:101B4000AAEF0DF0000E286E000E296E000E2A6E10
:101B5000000E2B6E2A8E000E2B6EB7EF0DF0000ECE
:101B6000286E000E296E000E2A6E000E2B6E2F506E
:101B7000800B381A2F502F24406E2EAEC2EF0DF07E
:101B8000C4EF0DF0C5EF0DF040804050D8B4CBEF5E
:101B90000DF0CDEF0DF0E2EF0DF04028D8A4D3EF1B
:101BA0000DF0D5EF0DF0DDEF0DF0000E2C6E000EF8
:101BB0002D6E000E2E6E000E2F6E2E8E000E2F6ECE
:101BC000EAEF0DF0000E2C6E000E2D6E000E2E6E44
:101BD000000E2F6E2C502D102E102F10D8A4F3EFC6
:101BE0000DF0F5EF0DF00DEF0EF0000E286E000E6B
:101BF000296E000E2A6E000E2B6E800E2A127F0EAA
:101C00002B1238502B1228C028F029C029F02AC0E6
:101C10002AF02BC02BF050EF0FF03F50D8A413EF59
:101C20000EF015EF0EF01FEF0EF0000E286E000EF6
:101C3000296E000E2A6E000E2B6E50EF0FF04050F2
:101C40003FC030F0316A305E000E315A7F0E3024D2
:101C5000396E000E31203A6E28C034F029C035F0BC
:101C60002AC036F02BC037F0000E286E000E296E09
:101C7000000E2A6E000E2B6E000E3B6E000E3C6EA8
:101C8000000E3D6E000E3E6E000E406E80EF0EF0B8
:101C90004050D8B44EEF0EF050EF0EF067EF0EF05C
:101CA000D8903436353636363736D89028362936F9
:101CB0002A362B363EAE5FEF0EF061EF0EF062EF8C
:101CC0000EF02880D8903B363C363D363E362C50C0
:101CD000345C2D5035582E5036582F503758D8A0D8
:101CE00074EF0EF076EF0EF07FEF0EF03E8C2C507E
:101CF000345E2D50355A2E50365A2F50375A402ABE
:101D0000190E406486EF0EF088EF0EF048EF0EF0EB
:101D10003450351036103710D8B491EF0EF093EFE1
:101D20000EF0ABEF0EF03B80ABEF0EF0D890283604
:101D300029362A362B363EAEA0EF0EF0A2EF0EF07B
:101D4000A3EF0EF02880D8903B363C363D363E3629
:101D50003906D8A03A062AAEB0EF0EF0B2EF0EF078
:101D600096EF0EF0000E406E3EAEB9EF0EF0BBEFF8
:101D70000EF0DFEF0EF0FF0E3B14306EFF0E3C1442
:101D8000316EFF0E3D14326E7F0E3E14336E3050B6
:101D9000311032103310D8B4D0EF0EF0D2EF0EF075
:101DA000D6EF0EF0010E406EDFEF0EF028A0DBEF55
:101DB0000EF0DDEF0EF0DFEF0EF0D2EF0EF0405040
:101DC000D8B4E5EF0EF0E7EF0EF00BEF0FF0010ED9
:101DD0002826000E29222A222B222BA0F2EF0EF019
:101DE000F4EF0EF00BEF0FF028C030F029C031F007
:101DF0002AC032F02BC033F0333433323232313236
:101E0000303230C028F031C029F032C02AF033C05F
:101E10002BF0394A3A2A3ABE16EF0FF03A5008E151
:101E20003928D8A016EF0FF018EF0FF023EF0FF0BE
:101E3000000E3A6E3968000E286E000E296E000EF4
:101E40002A6E000E2B6E3ABE30EF0FF03A5006E1CC
:101E50003904D8B02EEF0FF030EF0FF03EEF0FF057
:101E6000000E3A6E000E396E000E286E000E296EBE
:101E7000000E2A6E000E2B6E000E386E39C03FF039
:101E80003FA045EF0FF047EF0FF04AEF0FF02A8E1B
:101E90004BEF0FF02A9ED8903F302B6E01EF0EF0E3
:101EA00012008EC0D9FF8FC0DAFFDECFF6FFDDCF84
:101EB000F7FF0800F550250AD8A461EF0FF063EF93
:101EC0000FF0C3EF10F08EC0D9FF8FC0DAFFDE2A0B
:101ED000000EDD22000E0001E06F000EDF6FDFC09C
:101EE000E3F0E169E2698EC0D9FF8FC0DAFFDECF8F
:101EF000F6FFDDCFF7FF0800F5502E0AD8A483EFD8
:101F00000FF085EF0FF09AEF0FF08EC0D9FF8FC062
:101F1000DAFFDE2A000EDD228EC007F08FC008F047
:101F200090C009F091C00AF0B0EC17F007C0E1F0E2
:101F300008C0E2F08EC0D9FF8FC0DAFFDECF97F085
:101F4000DDCF98F097C0F6FF98C0F7FF0800F55076
:101F5000640AD8B4AEEF0FF0B0EF0FF0BEEF0FF0A1
:101F600097C0F6FF98C0F7FF0800F550690AD8A49B
:101F7000BCEF0FF0BEEF0FF0EDEF0FF090C0D9FF08
:101F800091C0DAFFDFCF5EF0020EDE26DFCF5FF01A
:101F9000000EDD225EC0D9FF5FC0DAFFDECF92F017
:101FA000DDCF93F0010E000197255E6E000E9821A3
:101FB0005F6E8EC0D9FF8FC0DAFF5EC0DEFF5FC0EC
:101FC000DDFF8CC01EF08DC01FF092C020F093C0CA
:101FD00021F0D2EC13F0D7EF10F08EC0D9FF8FC0F4
:101FE000DAFFDECF97F0DDCF98F097C0F6FF98C00C
:101FF000F7FF0800F5CF96F00AEF10F0974B982BFB
:1020000024EF10F06C0E966F24EF10F0000E966F18
:1020100024EF10F0000196515E6E5F6A5F50000A77
:10202000D8B415EF10F006EF10F05E504C0AD8B49B
:10203000FEEF0FF02A0AD8B402EF10F00A0AD8B463
:10204000FEEF0FF006EF10F097C0F6FF98C0F7FF15
:102050000800F550660AD8A430EF10F032EF10F007
:10206000BAEF10F068EF10F090C0D9FF91C0DAFF1E
:10207000DFCF5EF0040EDE26DFCF5FF0000EDD2244
:102080005EC0D9FF5FC0DAFFDECF92F0DECF93F003
:10209000DECF94F0DECF95F07DEF10F090C0D9FF49
:1020A00091C0DAFFDFCF5EF0040EDE26DFCF5FF0F7
:1020B000000EDD225EC0D9FF5FC0DAFFDECF92F0F6
:1020C000DECF93F0DECF94F0DECF95F07DEF10F011
:1020D00096515E6E5F6A5F50000AD8B472EF10F0DE
:1020E0007DEF10F05E504C0AD8B44EEF10F0200A8D
:1020F000D8B434EF10F07DEF10F0010E97255E6E2E
:10210000000E98215F6E8EC0D9FF8FC0DAFF5EC0CF
:10211000DEFF5FC0DDFFA4EF10F08CC055F08DC076
:1021200056F092C057F093C058F094C059F095C043
:102130005AF097C0F6FF98C0F7FF0800F5CF5BF0A4
:1021400013EC04F0D7EF10F097C0F6FF98C0F7FF3C
:102150000800F5505E6E5F6A5F50000AD8B4B3EFB6
:1021600010F0BAEF10F05E50660AD8B48DEF10F0A0
:10217000BAEF10F08EC0D9FF8FC0DAFFDE2A000E52
:10218000DD22D7EF10F08EC0D9FF8FC0DAFFDECF8F
:10219000F6FFDDCFF7FF0800F550036E046A8CC030
:1021A00005F08DC006F04BEC17F0BAEF10F01200FE
:1021B000E8EC1AF00009D8A4E0EF10F0E2EF10F01C
:1021C000D8EF10F08996010E016E010E22EC19F085
:1021D00020EEB9F011EE78F01D0EDBCFE3FFE8063C
:1021E000FCE222EE3CF011EE00F01D0EDBCFE3FF2F
:1021F000E806FCE222EE1EF011EE1EF01D0EDBCF13
:10220000E3FFE806FCE222EE00F011EE3CF01D0ECA
:10221000DBCFE3FFE806FCE2A2C1A0F1A3C1A1F17C
:102220000A0E87EC1CF001C0A2F102C0A3F1960EC9
:102230000001A16F010EA26F200EA36F080EA46F04
:10224000A2C1A5F0A3C1A6F09BEC1BF0E8EC1AF02C
:102250000009D8A42EEF11F030EF11F026EF11F0A5
:102260008996010E016E800E22EC19F00B0E036EA2
:10227000080E046EA8EC19F0E8EC1AF00009D8A4D6
:1022800044EF11F046EF11F03CEF11F08996010E8A
:10229000016E870E22EC19F0960E036E010E046E8D
:1022A000A8EC19F05A0E0001A16F010EA26F130ED7
:1022B000A36F080EA46FA2C141F0A3C142F067EC66
:1022C00019F041C0A5F042C0A6F043C0A7F044C039
:1022D000A8F09BEC1BF0E8EC1AF00009D8A473EF0F
:1022E00011F075EF11F06BEF11F08996010E016E90
:1022F000C00E22EC19F0010E036E080E046EA8EC5D
:1023000019F0E8EC1AF00009D8A489EF11F08BEF6E
:1023100011F081EF11F08996010E016ECA0E22ECC8
:1023200019F05A0E036E010E046EA8EC19F00101AB
:10233000A051A21909E1A151A319D8B4A2EF11F03B
:10234000A4EF11F0E2EF11F0780E0F6E010E106E97
:102350005A0E116E010E126EB5EC1CF0780E0F6E57
:10236000010E106E000E116E010E126EB5EC1CF017
:10237000780E0F6E010E106E1E0E116E010E126E93
:10238000B5EC1CF0780E0F6E010E106E960E116EED
:10239000010E126EB5EC1CF0780E0F6E010E106E71
:1023A0003C0E116E010E126EB5EC1CF0780E026E32
:1023B000010E036EB9EC1AF0230E026E080E036EC6
:1023C000B9EC1AF0050E0001B86F0F0EB76FF10EE1
:1023D000E82EFED7B72FFCD7B82FFAD71200D7C0F8
:1023E00051F0D8C052F0D9C053F0DAC054F041C017
:1023F00051F042C052F043C053F044C054F0810E3B
:10240000456EFF0E466E51C047F052C048F053C0B3
:1024100049F054C04AF0180E13EF12F0D8904A3227
:10242000493248324732E82E0EEF12F04750452429
:102430004F6E000E4620506E50BE28EF12F05050E6
:1024400009E1170E4F5CD8A028EF12F02AEF12F026
:1024500034EF12F041C041F042C042F043C043F0BB
:1024600044C044F0F7EF12F050BE39EF12F03BEFEA
:1024700012F0ABEF12F04FC045F0FF0E466EFF0EAC
:10248000476E7F0E486E000E496E45664AEF12F0A9
:1024900052EF12F049344932483247324632452E23
:1024A00045EF12F046C04BF047C04CF048C04DF02D
:1024B00049C04EF04B505114456E4C505214466E6C
:1024C0004D505314476E4E505414486E45504610AC
:1024D00047104810D8A46FEF12F071EF12F073EFAD
:1024E00012F02AEF12F051C045F052C046F053C02E
:1024F00047F054C048F0200E83EF12F0D8904832D5
:10250000473246324532E82E7EEF12F045504610F3
:1025100047104810D8B48FEF12F091EF12F099EFF6
:1025200012F04B5051264C5052224D5053224E50D7
:1025300054224B1C456E4C1C466E4D1C476E4E1C67
:10254000486E455051164650521647505316485043
:102550005416EFEF12F051C045F052C046F053C090
:1025600047F054C048F0200EBBEF12F0D89048322C
:10257000473246324532E82EB6EF12F0455046104B
:1025800047104810D8A4C7EF12F0C9EF12F0D3EFEC
:1025900012F0000E516E000E526E000E536E000EC1
:1025A000546EEFEF12F0D8905134456E5234466EAF
:1025B0005334476E5434486E455046104710481007
:1025C000D8B4E5EF12F0E7EF12F0EFEF12F0000EE3
:1025D000516E000E526E800E536EBF0E546E51C07F
:1025E00041F052C042F053C043F054C044F01200D6
:1025F000096E0950D8B4FFEF12F001EF13F023EF8A
:1026000013F004BE08EF13F006EF13F023EF13F0FE
:1026100001C005F002C006F003C007F004C008F0D6
:10262000051E061E071E081E052A000E062207228A
:10263000082205C00BF006C00CF007C00DF008C062
:102640000EF02BEF13F001C00BF002C00CF003C032
:102650000DF004C00EF00150021003100410D8A4B5
:1026600034EF13F036EF13F040EF13F0000E016E6D
:10267000000E026E000E036E000E046ED1EF13F01A
:10268000960E0A6E4AEF13F00A2AD8900E320D32D7
:102690000C320B32000E0B14056E000E0C14066E7D
:1026A000000E0D14076EFE0E0E14086E0550061077
:1026B00007100810D8A45FEF13F061EF13F044EF98
:1026C00013F06FEF13F00A2A010E0B26000E0C22F6
:1026D0000D220E22D8900E320D320C320B32000E2B
:1026E0000B14056E000E0C14066E000E0D14076E12
:1026F000FF0E0E14086E0550061007100810D8A41F
:1027000084EF13F086EF13F063EF13F08EEF13F006
:102710000A06D8900B360C360D360E360DBE93EFEA
:1027200013F095EF13F09DEF13F0020E0A609BEF8C
:1027300013F09DEF13F088EF13F00AB0A2EF13F03F
:10274000A4EF13F0A5EF13F00D9ED8900A320AC043
:1027500005F0066A076A086A05C008F0076A066A93
:10276000056A05500B1206500C1207500D12085046
:102770000E120950D8B4BFEF13F0C1EF13F0C9EF38
:1027800013F004BEC8EF13F0C6EF13F0C9EF13F057
:102790000E8E0BC001F00CC002F00DC003F00EC095
:1027A00004F0120021BED7EF13F0DAEF13F0010EA0
:1027B000DBEF13F0000E2A6E2A50D8B4E2EF13F0CC
:1027C000E4EF13F0E8EF13F0206C211ED8B0212ABB
:1027D0000001E2BFF0EF13F0EEEF13F0F6EF13F0AD
:1027E000000E256E010E246EFAEF13F0E1C024F006
:1027F000E2C025F0DFC026F0E0C027F02A50D8B4B0
:1028000004EF14F006EF14F01DEF14F02606D8A024
:1028100027062A50D8A40FEF14F011EF14F017EF89
:1028200014F0000E236E2B0E226E1BEF14F0000E20
:10283000236E2D0E226E22C02AF0000E296E4F0E3E
:10284000286E000E0101F36F56EF14F02806D8A091
:102850002906A40E2824D96E010E2920DA6E20C084
:1028600001F021C002F0000E046E0A0E036E75EC3A
:1028700018F001C007F002C008F030EC1CF007505F
:10288000300FDF6E2406D8A025062606D8A027061E
:1028900020C001F021C002F0000E046E0A0E036E8B
:1028A00013EC18F001C020F002C021F029BE61EF46
:1028B00014F0295008E12804D8A061EF14F063EF68
:1028C00014F079EF14F020502110D8A46AEF14F01E
:1028D0006CEF14F026EF14F025BE79EF14F02550BC
:1028E00006E12404D8B077EF14F079EF14F026EF66
:1028F00014F02A50D8B47FEF14F081EF14F08CEF6D
:1029000014F02806D8A02906A40E2824D96E010E9A
:102910002920DA6E2AC0DFFF1EC013F01FC014F09A
:10292000A40E2824156E010E2920166E26C017F05D
:1029300027C018F0E8EC19F0120092928992929652
:102940008996929489940F0E9216010E0001E66FFB
:102950004E0E036EEB0EE82EFED7032EFCD700F0D2
:102960008996000E016E300E22EC19F01A0E036EDD
:10297000F80EE82EFED7032EFCD700D08996000E65
:10298000016E300E22EC19F01A0E036EF80EE82ECE
:10299000FED7032EFCD700D08996000E016E300EB4
:1029A00022EC19F01A0E036EF80EE82EFED7032E55
:1029B000FCD700D08996000E016E200E22EC19F093
:1029C000E8EC1AF00009D8A4E8EF14F0EAEF14F0EC
:1029D000E0EF14F0E8EC1AF00009D8A4F2EF14F0DC
:1029E000F4EF14F0EAEF14F08996010E016E280E50
:1029F00022EC19F0040E0001E56FE8EC1AF0000972
:102A0000D8A405EF15F007EF15F0FDEF14F0899647
:102A1000010E016E0C0E22EC19F0020E0001E46FA3
:102A2000E8EC1AF00009D8A418EF15F01AEF15F029
:102A300010EF15F08996010E016E060E22EC19F0CA
:102A4000E8EC1AF00009D8A428EF15F02AEF15F0E9
:102A500020EF15F08996010E016E010E22EC19F09F
:102A6000E8EC1AF00009D8A438EF15F03AEF15F0A9
:102A700030EF15F08996010E016E020E22EC19F06E
:102A80001200000E0A6E08BE4AEF15F048EF15F06E
:102A900054EF15F0081E071E061E056C000E0622D8
:102AA00007220822010E0A6E04BE5BEF15F059EFF3
:102AB00015F065EF15F0041E031E021E016C000EDA
:102AC000022203220422010E0A1A000E0B6E000ECF
:102AD0000C6E000E0D6E000E0E6E055006100710E7
:102AE0000810D8B476EF15F078EF15F0AEEF15F0CA
:102AF000010E096E82EF15F0D890053606360736BE
:102B00000836092A08AE87EF15F089EF15F07CEF3B
:102B100015F0D8900B360C360D360E360550015C8C
:102B2000065002580750035808500458D8A09BEF8D
:102B300015F09DEF15F0A6EF15F00550015E06505B
:102B4000025A0750035A0850045A0B80D890083292
:102B5000073206320532092E89EF15F00A50D8B433
:102B6000B4EF15F0B6EF15F0BEEF15F00E1E0D1E0A
:102B70000C1E0B6C000E0C220D220E220BC001F05D
:102B80000CC002F00DC003F00EC004F012000334BC
:102B900004340A6E0A50D8A4D0EF15F0D2EF15F025
:102BA000DCEF15F0000E016E000E026E000E036EDB
:102BB000000E046E49EF16F001C005F002C006F0E9
:102BC00003C007F004C008F0200EECEF15F0D89019
:102BD0000832073206320532E82EE7EF15F00550CD
:102BE000096E038EFF0E0116FF0E0216FF0E03166E
:102BF000000E0416960E0A5E0ABE03EF16F001EFF1
:102C000016F019EF16F00A50800A970FD8B00BEFA4
:102C100016F00DEF16F00FEF16F0D2EF15F0D8907A
:102C200004320332023201320A3E0FEF16F031EF66
:102C300016F01F0E0A641FEF16F021EF16F029EFB1
:102C400016F0D2EF15F0D89001360236033604366E
:102C50000A060A50D8A42FEF16F031EF16F023EF32
:102C600016F00950D8B437EF16F039EF16F041EFEF
:102C700016F0041E031E021E016C000E0222032227
:102C8000042201C001F002C002F003C003F004C03E
:102C900004F01200000E2814306E000E2914316E5C
:102CA000800E2A14326E7F0E2B14336E305031108A
:102CB00032103310D8A45FEF16F061EF16F069EF11
:102CC00016F0000E286E000E296E000E2A6E000E01
:102CD0002B6E000E2C14306E000E2D14316E800EF3
:102CE0002E14326E7F0E2F14336E3050311032108E
:102CF0003310D8A47EEF16F080EF16F088EF16F0B0
:102D0000000E2C6E000E2D6E000E2E6E000E2F6E1D
:102D10002BAE8DEF16F08FEF16F098EF16F0286CB3
:102D2000291ED8B0292A2A1ED8B02A2A800E2B564E
:102D30002FAE9DEF16F09FEF16F0A8EF16F02C6C5B
:102D40002D1ED8B02D2A2E1ED8B02E2A800E2F561A
:102D5000000E281A000E291A000E2A1A800E2B1AAD
:102D6000000E2C1A000E2D1A000E2E1A800E2F1A8D
:102D70002C50285C2D5029582E502A582F502B5853
:102D8000D8B0C5EF16F0C7EF16F0CAEF16F0D8901E
:102D9000CBEF16F0D8801200DBC00BF0DCC00CF0DB
:102DA000DDC00DF0DEC00EF001C00BF002C00CF073
:102DB00003C00DF004C00EF00BC005F00CC006F00F
:102DC0000DC007F00EC008F0180EECEF16F0D8900A
:102DD0000832073206320532E82EE7EF16F00550CA
:102DE000096E0A6A09500A10D8A4F9EF16F0FBEF31
:102DF00016F01BEF17F0D8900B34056E0C34066EEE
:102E00000D34076E0E34086E0550061007100810BA
:102E1000D8A40DEF17F00FEF17F015EF17F0000E15
:102E2000026E020E016E4AEF17F0000E026E030EE4
:102E3000016E4AEF17F009280A10D8A422EF17F004
:102E400024EF17F046EF17F00BC005F00CC006F0AA
:102E50000DC007F00EC008F0090ED89005360636F2
:102E600007360836E82E2DEF17F00550061007102C
:102E70000810D8B43EEF17F041EF17F0010E42EF03
:102E800017F0000E016E026A4AEF17F0000E026E94
:102E9000040E016E120005500610D8B452EF17F060
:102EA00054EF17F05DEF17F005500610D8A45BEF54
:102EB00017F05DEF17F062EF17F0035004EC1DF010
:102EC000AFEF17F020EE0AF00550D9260650DA22AF
:102ED000DE50DE10D8B46FEF17F071EF17F08CEF03
:102EE00017F020EE0AF00550D9260650DA2210EE2F
:102EF00003F00550E1260650E222DE50E65CE65083
:102F0000800A0B6EDE50800A0B58D8B08AEF17F09B
:102F10008CEF17F0AFEF17F020EE03F00550D92635
:102F20000650DA22DECF07F0DDCF08F005C0D9FF6A
:102F300006C0DAFFDECF09F0DDCF0AF00750092422
:102F4000D96E08500A20DA6E03C0DFFF20EE03F0CE
:102F50000550D9260650DA22DE2A000EDD221200A4
:102F6000000E0F6E000E0E6E07C0D9FF08C0DAFF0C
:102F7000DECFF6FFDDCFF7FF0800F5502A0AD8A410
:102F8000C4EF17F0C6EF17F0FAEF17F007C0D9FF3C
:102F900008C0DAFFDE2A000EDD2209C0D9FF0AC010
:102FA000DAFFDFCF0BF0020EDE26DFCF0CF0000ED3
:102FB000DD220BC0D9FF0CC0DAFFDECF0EF0DDCF73
:102FC0000FF00EEF18F00EC001F00FC002F0000E6F
:102FD000046E0A0E036EC8EC1CF00D5001240E6E38
:102FE000000E02200F6E07C0D9FF08C0DAFFDE2AEC
:102FF000000EDD2207C0D9FF08C0DAFFDECFF6FFE2
:10300000DDCFF7FF0800F550D00F0D6E090E0D64EF
:103010000CEF18F00EEF18F0E3EF17F00EC007F00A
:103020000FC008F01200000E066E04BE1CEF18F070
:103030001AEF18F022EF18F0036C041ED8B0042A1F
:10304000010E066E02BE29EF18F027EF18F02FEFE1
:1030500018F0016C021ED8B0022A010E061A000EEA
:10306000086E000E076E03500410D8B43AEF18F043
:103070003CEF18F064EF18F0010E056E44EF18F005
:10308000D89003360436052A04AE49EF18F04BEF0A
:1030900018F040EF18F0D890073608360350015C5E
:1030A00004500258D8A057EF18F059EF18F05EEF0F
:1030B00018F00350015E0450025A0780D890043281
:1030C0000332052E4BEF18F00650D8B46AEF18F013
:1030D0006CEF18F070EF18F0076C081ED8B0082AD3
:1030E00007C001F008C002F01200000E066E02BE1A
:1030F0007EEF18F07CEF18F084EF18F0016C021EE0
:10310000D8B0022A010E066E04BE8BEF18F089EFCC
:1031100018F08FEF18F0036C041ED8B0042A035087
:103120000410D8B496EF18F098EF18F0BCEF18F030
:10313000010E056EA0EF18F0D89003360436052A6C
:1031400004AEA5EF18F0A7EF18F09CEF18F00350AD
:10315000015C04500258D8A0B0EF18F0B2EF18F09C
:10316000B6EF18F00350015E0450025AD8900432B2
:103170000332052EA7EF18F00650D8B4C2EF18F0AE
:10318000C4EF18F0C8EF18F0016C021ED8B0022A84
:1031900001C001F002C002F01200000E0114096E1D
:1031A000000E02140A6E800E03140B6E7F0E0414C0
:1031B0000C6E09500A100B100C10D8A4E2EF18F096
:1031C000E4EF18F0ECEF18F0000E016E000E026E46
:1031D000000E036E000E046E000E0514096E000E44
:1031E00006140A6E800E07140B6E7F0E08140C6E08
:1031F00009500A100B100C10D8A401EF19F003EFBE
:1032000019F00BEF19F0000E056E000E066E000EA1
:10321000076E000E086E055001180FE106500218E7
:103220000CE10750031809E108500418D8B41BEF4B
:1032300019F01DEF19F020EF19F0D89021EF19F0D7
:10324000D8801200026E02C0E7F089920001E7AF59
:1032500002D0898E01D0899E0001E7AD02D0898C11
:1032600001D0899C0001E7AB02D0898A01D0899AFC
:103270000001E7A902D0898801D08998898400D00B
:1032800000D089940150D8B448EF19F04AEF19F0F2
:1032900066EF19F00001E7A702D0898E01D0899E60
:1032A0000001E7A502D0898C01D0899C0001E7A329
:1032B00002D0898A01D0899A0001E7A102D08988C9
:1032C00001D08998898400D000D089941200000E22
:1032D000136E000E146EA00E156E400E166E41C0D9
:1032E00001F042C002F0000E02BEFF0E036E046E3B
:1032F000010EF8EC12F001C00FF002C010F003C094
:1033000011F004C012F06FEC0BF00FC028F010C0E9
:1033100029F011C02AF012C02BF0000E2C6EC00E46
:103320002D6E7F0E2E6E440E2F6E84EC0DF028C095
:1033300045F029C046F02AC047F02BC048F045C0F0
:1033400041F046C042F047C043F048C044F012008C
:1033500003C005F004C006F0CFEF19F0E8EC1AF056
:103360000009D8A4B6EF19F0B8EF19F0AEEF19F0D4
:103370008986010E016E05C0F6FF06C0F7FFF86AE8
:10338000070EF76403D00800F55005D0F6CFE9FF2B
:10339000F7CFEAFFEF5022EC19F0054A062A05C0E4
:1033A000F6FF06C0F7FFF86A070EF76403D00800BF
:1033B000F55005D0F6CFE9FFF7CFEAFFEF5000094F
:1033C000D8A4E5EF19F0E7EF19F0AEEF19F012000D
:1033D00018BEEDEF19F0EFEF19F0F5EF19F017C087
:1033E0001CF018C01DF0F9EF19F0000E1D6E000E54
:1033F0001C6E000E1B6E000E1A6E0BEF1AF0000E04
:10340000046E200E036E13C005F014C006F04BECE2
:1034100017F01A4A1B2A1C501A5C1B50800A196E9E
:103420001D50800A1958D8A018EF1AF01AEF1AF098
:10343000FFEF19F015C00CF016C00DF013C00EF020
:1034400014C00FF00EEC1CF0120004BE34EF1AF0A2
:1034500004500310021006E10104D8B032EF1AF054
:1034600034EF1AF04FEF1AF001C005F002C006F079
:1034700003C007F004C008F0051E061E071E081E44
:10348000052A000E06220722082205C001F006C008
:1034900002F007C003F008C004F057EF1AF001C0B3
:1034A00001F002C002F003C003F004C004F01200F7
:1034B0008A0EF66E360EF76E000EF86E02EE00F013
:1034C00010EE5AF00900F5CFEEFFE550E150FAE1B9
:1034D000B60EF66E390EF76E000EF86E00EEB9F00D
:1034E00010EE1EF00900F5CFEEFFE550E150FAE1D5
:1034F00001EEA0F0540EEE6AE806FDE100EED7F012
:10350000110EEE6AE806FDE1000EF86E0001A1EF73
:103510001CF0000E016E240E026EF40E036E000EFF
:10352000046E0FC013F010C014F011C015F012C0DB
:1035300016F0040ED8901336143615361636E82ECB
:103540009AEF1AF013C005F014C006F015C007F08A
:1035500016C008F041EC15F00104176EAC84948E8F
:10356000949CAC98AC9C17C0AFFFAB8EAC8AAB8878
:103570001200CFEF1AF002C0F6FF03C0F7FFF86A9F
:10358000070EF76403D00800F55005D0F6CFE9FF29
:10359000F7CFEAFFEF50EAEC1CF0024A032A02C020
:1035A000F6FF03C0F7FFF86A070EF76403D00800C0
:1035B000F55005D0F6CFE9FFF7CFEAFFEF5000094D
:1035C000D8A4E5EF1AF0E7EF1AF0BBEF1AF01200FB
:1035D000630E0001E665EFEF1AF0F1EF1AF0F6EF77
:1035E0001AF0010EE66F000E16EF1BF08982899625
:1035F000F00E9212898400D000D080AE03D000017A
:10360000E78F02D00001E79F8994898400D000D021
:1036100089940F0E921689920001E7AF12EF1BF00A
:1036200014EF1BF0F1EF1AF0E62B010E120007C0A9
:103630000BF008C00CF005C00DF006C00EF00B50EA
:10364000096E0C500A6E0B4A0C2A09C0F6FF0AC01C
:10365000F7FFF86A0DC0D9FF0EC0DAFF0D4A0E2A37
:10366000070EF76403D00800F55005D0F6CFE9FF48
:10367000F7CFEAFFEF50DF6EDF50D8A442EF1BF028
:1036800044EF1BF01FEF1BF01200230000000000AE
:10369000000000000000000000000000000000002A
:1036A000000000000000000041445245533A200051
:1036B000000000000000000000000000000000000A
:1036C0000000000000005620202000000000000044
:1036D00000000000000000000000000000000000EA
:1036E000000000009BC09FF09CC0A0F087EF1BF083
:1036F00099C08CF09AC08DF09F0E00018E6F000E65
:103700008F6F9DC090F09EC091F051EC0FF09FC064
:10371000F6FFA0C0F7FF0800F5500009D8A493EF0A
:103720001BF095EF1BF078EF1BF0000E00019A6F75
:10373000000E996F1200A50E0001A96F000EAA6F6E
:10374000A1C0ABF0A2C0ACF0000EAF6F000EAE6F28
:10375000000EB66F000EB56FAB0E996F000E9A6F2C
:10376000A3C09BF0A4C09CF0A90E9D6F000E9E6F9D
:1037700072EC1BF00001AE51A125D96EAF51A22110
:10378000DA6EDF6A120003C009F004C00AF001C05B
:1037900007F002C008F0DDEF1BF009C0D9FF0AC036
:1037A000DAFFDF500B6E094A0A2A07C0D9FF08C0AA
:1037B000DAFF0BC0DFFF074A082A0506D8A0060675
:1037C000052806E10628D8A4E8EF1BF0EAEF1BF075
:1037D000CDEF1BF01200000E2C1A000E2D1A000E59
:1037E0002E1A800E2F1A28C001F029C002F02AC01C
:1037F00003F02BC004F02CC005F02DC006F02EC045
:1038000007F02FC008F00FEC09F001C028F002C04B
:1038100029F003C02AF004C02BF01200000E126E33
:10382000000E116E1FEF1CF010C003F0046A0EC0F2
:1038300005F00FC006F04BEC17F0114A122A115098
:103840000C24D96E12500D20DA6EDF50106E10501D
:10385000D8A42DEF1CF02FEF1CF014EF1CF0120079
:1038600008BE3DEF1CF0085006E10704D8B03BEF5E
:103870001CF03DEF1CF04BEF1CF007C009F008C036
:103880000AF0091E0A1E094A0A2A09C007F00AC0DE
:1038900008F04FEF1CF007C007F008C008F0120056
:1038A0000150021003100410D8B459EF1CF05BEF64
:1038B0001CF063EF1CF0000E011A000E021A000E3D
:1038C000031A800E041A01C001F002C002F003C006
:1038D00003F004C004F0120001C003F002C004F0C1
:1038E00074EF1CF0014A022A01C0D9FF02C0DAFFBE
:1038F000DF50D8A47EEF1CF080EF1CF072EF1CF0BC
:103900000350015C016E04500258026E1200056EF5
:103910000544E846FC0B0109C26EC282C2B293EFB5
:103920001CF095EF1CF08EEF1CF0C350C4CF03F0D9
:10393000046A03C004F0036A0310016E0450026EAF
:103940001200FDEC1CF0800E0F6E250E106E000EA6
:10395000116E000E126E89EC1AF09DEC14F0D8EC8A
:1039600010F0AFEF1CF000EF00F00FC001F010C03E
:1039700002F06CEC1CF001500F24056E0250102078
:10398000066E11C007F012C008F017EC1BF0120011
:1039900001500302F3CF05F0F4CF06F0015004020A
:1039A000F350062602500302F350062605C001F02C
:1039B00006C002F01200564F4C54414A453A2000CE
:1039C00000000000000000000000000000000000F7
:1039D00000000000016E01C0ADFFACA2F2EF1CF0D0
:1039E000F4EF1CF0EDEF1CF01200290EC26E000E79
:1039F000C16E880EC06E9382120009EC1DF0F5ECCA
:103A00001CF00CEC1DF01200026E0250EAEC1CF0EF
:0A3A10001200720ED36E12001200B5
:020000040020DA
:08000000FFFFFFFFFFFFFFFF00
:020000040030CA
:0E00000000285F3CFFD185FF0FC00FE00F40CE
:00000001FF
