:100000000C945F000C94310F0C94310F0C94310F51
:100010000C94310F0C94310F0C94310F0C94310F60
:100020000C94310F0C94310F0C94310F0C94310F50
:100030000C94310F0C94310F0C94310F0C94310F40
:100040000C94310F0C94310F0C94310F0C94310F30
:100050000C94310F0C94310F0C94310F0C94310F20
:100060000C94310F0C94300A0C94310F0C94310F16
:100070000C94310F0C94310F0C94310F0C94310F00
:100080000C94310F0C94310F0C94310F0C94310FF0
:100090000C94310F0C94310F0C94310F0C94310FE0
:1000A0000C94310F0C94310F0C94310F0100016549
:1000B0008001650169001E700169016A80001124D8
:1000C0001FBECFEFDAE0DEBFCDBFECEAF0E040E0EC
:1000D00017C0B591A59135912591059107FD0CC0EB
:1000E00095918591EF01F92FE82F05900D92A217B8
:1000F000B307D9F7FE0104C01D92A217B307E1F7B9
:10010000ED3BF40731F70E94650E0C94B60EF8949F
:02011000FFCF1F
:100112005F5F5F5F5F5F5F5F5F5F5F5F5F5F5F5FED
:100122005F5F5F5F5F5F5F5F5F5F5F5F000A004F00
:100132000050004100430049004400443A002000BE
:07014200252E3266002500A6
:1001490068076C094C836A9074A07AC0008068883B
:0601590000846C820081AD
:10015F00494E4600696E66004E414E006E616E005C
:06016F00286E696C2900F6
:10017600A6E2B0E0E1ECF0E00C94900D98A38F8F2E
:100186007F8B6E8B288FFB010190F081E02DFA8723
:10019600E987FB0102811381248135813B8B2A8B00
:1001A600808591859AA389A30680F781E02DFA833D
:1001B600E983FA0180809180A280B38020E030E05C
:1001C600A901C501B4010E941C0F87FF06C0B7FA3A
:1001D600B094B7F8B0948DE204C0F985F2FF69C314
:1001E6008BE2E981FA8180832A893B892150310992
:1001F6003C832B8341E050E0598B488B06C08A89AB
:100206009B899C838B83198A188AD501C401BF7781
:100216000097E0E8AE07EFE7BE07F1F4F88D2F2F61
:10022600FF0F330B2154310989819A8148895989F5
:10023600840F951F2A31310520F44FE551E060E027
:1002460003C043E651E060E00E949C0E89819A81DA
:100256003C01E0E88E2E1AC30197A048BF47F0F094
:10026600488D242F440F330B2154310989819A81FB
:10027600E889F9898E0F9F1F2A31310520F447E658
:1002860051E060E003C04BE651E060E00E949C0E46
:1002960029813A81390140E8842EF8C220E030E015
:1002A600A901C501B4010E941C0FC12CD12C20E864
:1002B600E22E2FE3F22E212C312C882309F487C05D
:1002C6008D829E82AF82B88620E030E040E251E423
:1002D600C701B6010E942A0F2B013C01D501C401BA
:1002E60084199509A609B709B7FF07C0B095A09567
:1002F600909581959F4FAF4FBF4F0297A105B105CE
:1003060034F45FEF251A350A73016201DDCFA501CA
:100316009401C301B2010E941C0F87FDF2CF8D81AB
:100326009E81AF81B8858C199D09AE09BF090196DA
:10033600A11DB11D0397A105B10508F446C01E8293
:100346001D82A5019401C701B6010E94210F18164E
:10035600F4F584ED28168EEF3806E4F4ED81FE817F
:10036600EF2BC1F420E030E040E85AE5C501B401C6
:100376000E942A0F4B015C0120E030E040E85AE57C
:10038600C701B6010E942A0F6B017C0121E030E013
:100396003E832D8320E030E040E251E4C701B60100
:1003A6000E94260F6B017C0131E0231A3108D5012A
:1003B600C4018C199D09AE09BF090196A11DB11D85
:1003C6000397A105B10508F0BCCF46015701488D3A
:1003D600042E000C550B598F488FCA010E94D20E6D
:1003E6008A8F17FD03C01E830D8304C086E090E04C
:1003F6009E838D839A8D973639F4012B41F4E1E083
:10040600F0E0FE83ED8303C04A8D4F8710C02CEFCA
:1004160022162FEF32060CF451C22D813E81221690
:1004260033060CF04BC237FE4CC256E65F878D8111
:100436009E8101969E838D839F85963699F437FE1D
:1004460008C0C12CD12C90E8E92E9FE3F92E212C6F
:10045600312CEA8DE73631F02D813E81220D331D98
:100466003E832D831C2DDDA2EBA20F2D8B869C8651
:10047600AD86BE861D8A1C8A8C899D89ED81FE818A
:100486008E179F07DCF5212F3DA14BA1502F6B85C1
:100496007C858D859E850E94260F0E9457082B011C
:1004A6003C010E94040F6B8FA3019201612F7DA175
:1004B6008BA1902F0E942A0F2B853C854D855E854A
:1004C6000E94E80E9B01AC0150582B873C874D8754
:1004D6005E8720E030E040E251E4612F7DA18BA1F0
:1004E600902F0E94260F162F7DA38BA3092F4C89D0
:1004F6005D894F5F5F4F5D8B4C8BBECF20E030E058
:1005060040EA50E4612F7DA18BA1902F0E942A0F13
:100516002B013C019B01AC016B857C858D859E85FD
:100526000E941C0F87FD0DC0A30192016B857C857F
:100536008D859E850E941C0F811106C0FB8DF0FDE6
:1005460003C0412C512C3201A5019401C301B20113
:100556000E94E90E4B015C0120E030E040E251E4EC
:10056600C701B6010E942A0F6B877C8B182F092FB3
:100576009B01482F592FC501B4010E94210F87FD09
:1005860011C02FEF221A320A3F85363679F44D8193
:100596005E814F5F5F4F5E834D835B855DA38C8974
:1005A6008EA30BC0CB86DC8A1E2D0F2D9F8595361C
:1005B60031F0EB85EDA3FC89FEA3710106C02B8506
:1005C6002DA33C893EA3E12CF12C48885988C12CE7
:1005D600D12C1D8A1C8A1C861B8649855A8540712A
:1005E60055275CA34BA32B853C854D815E81241743
:1005F600350734F08C899D89892B09F497C0A3C0EF
:100606003201EE89FF89808591850597481659063E
:1006160088F72DA13EA1412F502FC501B4010E949C
:10062600260F0E9457086B8F7C8F8D8F9E8F0E949E
:10063600040F6A30710514F069E070E08BA19CA18B
:10064600892B69F46115710551F49A8D973639F441
:10065600F7FE05C03601EFEF6E1A7E0A3BC02C8905
:100666003D89232BA1F4F7FE12C03FEF431A530A2C
:10067600E981FA81E60DF71D4EE240838B819C816C
:1006860001979C838B83E1E0F0E0FD8BEC8BE981A5
:10069600FA81E40DF51D36016114710431F020E391
:1006A600219331E0631A7108F7CFC601840D951DB9
:1006B6002B813C812C193D092C014FEF441A540A19
:1006C600E981FA81E80FF91F605D6083C90101972E
:1006D6009C838B832B8D3C8D4D8D5E8D6DA17EA174
:1006E600812F902F0E942A0FA50194010E94E80EE7
:1006F6004B015C01B7FAB094B7F8B09420E030E053
:1007060040E251E46DA17EA1812F902F0E94260F19
:100716006DA37EA3182F092F91E0E91AF108EB8546
:10072600FC853196FC87EB8763015DCFF985F4FF85
:100736000AC0E981FA81E40DF51D8EE280839201FB
:100746002F5F3F4F290149815A81440D551D5E8314
:100756004D83FA011082FF85F53609F061C0E98103
:10076600FA8129A13AA1E20FF31F3197108237FED1
:1007760006C031942194310801E010E002C000E087
:1007860010E0E9A1FAA1319749815A81E40FF51FDA
:1007960022E030E08AE0E82EF12CCF0149815A812F
:1007A600841B950B2114310479F0C101B7010E9415
:1007B6003D0E805D82931B01215031098B819C8106
:1007C60001979C838B83E9CF1216130674F3FC0101
:1007D6003197E40FF51F012B11F42BE201C02DE236
:1007E60020830297E981FA81E80FF91F288D398D58
:1007F600215431092A31310510F025E601C025E4DE
:1008060020832B813C81225031093C832B8348165F
:10081600590634F4AF0160E88D819E810E949C0EDA
:1008260049815A813A0180E8882E998591FF2EC028
:1008360090FD2CC0EB81FC811E161F063CF5882D11
:10084600B3010E94130E29813A81820F931F9C01E6
:1008560049815A81241B350BE889F9892E173F07F0
:100866004CF0FC012081EB81FC81E80FF91F20830D
:100876000197EDCF4B815C8160E370E089819A81BD
:100886008E0F9F1F0E94C10E1B8A1A8A882DB301E4
:100896000E94130EE984FA840A891B899C01682D3B
:1008A600A3018F8D98A10E94250BA696E2E10C94D8
:1008B600C70D598553FFA3CC80E293CC35E63F871D
:0808C600D1CD46E64F87CECDEF
:1008CE002F923F924F926F927F928F929F92AF9202
:1008DE00BF92CF92DF92EF92FF920F931F93CF931F
:1008EE00DF93CDB7DEB72E970FB6F894DEBF0FBEEF
:1008FE00CDBF4C016B0138011A8219828FEF9FEF29
:10090E009C838B831E821D8258874F833A8729874B
:10091E00A12CB12CD6012D913D914C912A0D3B1D50
:10092E00411DB7FC4A95F901849147FD80818111E3
:10093E0016C0F601208331834283F901849147FD6D
:10094E008081853209F00FC21901442EFFEF2F1A54
:10095E003F0A4F0AD6012D923D924C921BC0853212
:10096E0041F3B401082E000C990B0E94BA0B4FEF05
:10097E00A41AB40ACFCF2C32DCF02D3229F52981FE
:10098E003A8121603A8329830196A11DF601808365
:10099E009183A283F60180819181A281FC01249131
:1009AE00A7FD20812B3239F729813A812460EACFC5
:1009BE00203221F429813A812860E4CF233251F488
:1009CE0029813A812061DECF203321F429813A81B9
:1009DE002260D8CFB701C6010E94400C9E838D8342
:1009EE0097FF0BC029813A81F1E02F273A832983A3
:1009FE009195819591099E838D8389819A8180FF3E
:100A0E0003C08D7F9A838983F60180819181A281B3
:100A1E00FC012491A7FD20812E3261F40196A11DC7
:100A2E00F60180839183A283B701C6010E94400C18
:100A3E009C838B83C6010E94D60A182FD6012C9157
:100A4E0011968C91119712969C91E22FF82F84910A
:100A5E0097FD8081082E000C990B0E94D20E8936CC
:100A6E0009F44AC084F4833609F419C134F485328A
:100A7E0009F445C18136E1F050C18436E9F188367A
:100A8E000CF4E9C04AC1803709F4B0C03CF48E368C
:100A9E0009F4D6C08F3609F46DC03FC1853709F40D
:100AAE004AC0883709F485C0833709F036C10DC1B5
:100ABE00612F70E0A701CE010B960E94700D892B5D
:100ACE0009F448C1F60180819181A2819C014A2FCF
:100ADE002F5F3F4F4F4F208331834283FC01249180
:100AEE00A7FD2081AE01455F5F4FBE016F5F7F4F57
:100AFE00C4010E9400002BC1612F70E0970141E0FC
:100B0E0050E0CE010B960E940000892B09F422C101
:100B1E00F60180819181A2810196A11D808391832E
:100B2E00A283AE01455F5F4FBE016F5F7F4FC40171
:100B3E000E9400000CC1612F70E0970140E050E070
:100B4E00CE010B960E940000892B09F403C1F60119
:100B5E0080819181A2810196A11D80839183A283C0
:100B6E00AE01455F5F4FBE016F5F7F4FC4010E94B4
:100B7E000000EDC0612F70E0970140E050E0CE0123
:100B8E000B960E940000892B09F4E4C0F6018081C7
:100B9E009181A2810196A11D80839183A283AE01D2
:100BAE00455F5F4FBE016F5F7F4FC4010E94000023
:100BBE00CEC0612F70E0970140E050E0CE010B9661
:100BCE000E940000892B09F4C5C0F6018081918135
:100BDE00A2819C014A2F2F5F3F4F4F4F20833183BD
:100BEE004283FC012491A7FD208120C0970140E0A3
:100BFE0050E060EF70E0CE010B960E940000892B52
:100C0E0009F4A8C0F60180819181A2810196A11DEF
:100C1E0080839183A2838B859C85892B31F400E0A0
:100C2E0010E02FE631E040E08CC028E7AE01455FD2
:100C3E005F4FBE016F5F7F4FC4010E94000087C0EF
:100C4E00A501460D571D612F70E09701CE010B9641
:100C5E000E9400007FC0612F70E0A701CE010B96AD
:100C6E000E94700D892B09F475C0F6018081918167
:100C7E00A2819C014A2F2F5F3F4F4F4F208331831C
:100C8E004283FC012491A7FD2081AE01455F5F4F99
:100C9E00BE016F5F7F4FC4010E94BB0058C0103869
:100CAE0009F058C0F60180819181A2810196A11DA3
:100CBE0080839183A283D701ED91FC911197CF018F
:100CCE0002968D939C93808126C0103809F042C005
:100CDE00F60180819181A2810196A11D808391836D
:100CEE00A283D701ED91FC911197CF0103968D93BD
:100CFE009C9320813181428100E010E022C01038A7
:100D0E0049F5F6012081318142812F5F3F4F4F4FD0
:100D1E002083318342838B870EC085E28B87F60159
:100D2E002082318242821A8219821E821D828FEFA8
:100D3E009FEF9C838B839E01255F3F4F40E801E030
:100D4E0010E0BE016F5F7F4FC4010E9400008A0D4C
:100D5E009B1D0AC0F60180819181A2810196A11D81
:100D6E0080839183A283C5012E960FB6F894DEBFC1
:100D7E000FBECDBFDF91CF911F910F91FF90EF90DE
:100D8E00DF90CF90BF90AF909F908F907F906F909D
:080D9E004F903F902F90089543
:100DA600CF92DF92EF92CF93DF932DE130E042E1D5
:100DB60051E060E085E491E00E94E20D6FE271E0AF
:100DC60080E00E94AC0DC5E4D1E06E0180E8E82E1B
:100DD6008E2DB6010E94AC0D6FE271E080E00E949C
:100DE600AC0D22E030E041E351E060E0CE010E942C
:100DF600E20D8E2DB6010E94AC0D22E030E043E3F9
:100E060051E060E0CE010E94E20D8E2DB6010E94F7
:100E1600AC0D22E030E045E351E060E0CE010E94F7
:100E2600E20D8E2DB6010E94AC0D22E030E047E3C4
:100E360051E060E0CE010E94E20D8E2DB6010E94C7
:100E4600AC0D22E030E049E351E060E0CE010E94C3
:100E5600E20D8E2DB6010E94AC0D22E030E04BE390
:100E660051E060E0CE010E94E20D8E2DB6010E9497
:100E7600AC0D22E030E045E351E060E0CE010E9497
:100E8600E20D8E2DB6010E94AC0D23E030E04DE35D
:100E960051E060E0CE010E94E20D8E2DB6010E9467
:100EA600AC0D22E030E040E451E060E0CE010E946B
:100EB600E20D8E2DB6010E94AC0D809107018F9335
:100EC600809106018F93809105018F938091040193
:100ED6008F9382E491E0A0E0AF939F938F93DF938B
:100EE600CF930E94780E8E2DB6010E94AC0D22E0A3
:100EF60030E047E451E060E0CE010E94E20D8E2D25
:100F0600B6010E94AC0D6FE271E080E00E94AC0D6C
:100F160067E271E080E80E94AC0D6FE271E080E06C
:100F26000E94AC0D2DE130E042E151E060E0CE01DF
:100F36000E94E20D8E2DB6010E94AC0D1092680142
:100F4600109267018DB79EB709960FB6F8949EBFAB
:100F56000FBE8DBFDF91CF91EF90DF90CF900895B8
:100F66008F929F92AF92BF92CF92DF92EF92FF92B3
:100F76000F931F93CF93DF9380910001909101010E
:100F8600909303018093020180E00E94290E9093C2
:100F96000101809300012FE788E391E02150804012
:100FA6009040E1F700C0000000910001109101019E
:100FB600B801012E000C880B990B0E94050C6B01E1
:100FC6007C01C0910201D0910301BE010D2E000CDF
:100FD600880B990B0E94050C4B015C012AE037ED4A
:100FE60043E25CE30E94E90E9B01AC01C701B60136
:100FF6000E941C0F882381F12AE037ED43E25CE36F
:10100600C501B4010E94E80E9B01AC01C701B601FF
:101016000E941C0F882301F10C171D07E9F020E040
:1010260030E048EC52E4C701B6010E942A0F20E0E6
:1010360030EC4FE754E40E94260F6093040170934E
:101046000501809306019093070181E090E090935B
:1010560068018093670106C08091670190916801DD
:10106600892BA9F08091650190916601019769F439
:101076002FEF81EE94E0215080409040E1F700C0D0
:10108600000010926601109265010E94D306DF915E
:10109600CF911F910F91FF90EF90DF90CF90BF906F
:0810A600AF909F908F90089518
:1010AE004F925F926F927F928F929F92AF92BF926A
:1010BE00CF92DF92EF92FF92CF93DF93CDB7DEB751
:1010CE0028970FB6F894DEBF0FBECDBF6B017C0123
:1010DE00DC01CB0147E1B695A795979587954A9583
:1010EE00D1F799278F579109873191059CF597FD77
:1010FE0036C088248A94982C3FE7A32EB12C04C0C6
:10110E00B594A794979487948A95D2F7D501C40184
:10111E008C219D21AE21BF21892B8A2B8B2BD1F0C7
:10112E0020E030E040E85BE7C701B6010E94E90E1F
:10113E006D837E838F839887F7FE04C0C80CD91CFD
:10114E00EA1CFB1C80949094A094B094C820D920E3
:10115E00EA20FB205C2D4D2D3E2D2F2D21C020E0B1
:10116E0030E040E85BE7C701B6010E94E90E6983F3
:10117E007A838B839C83F7FE0FC0D701C601880F3D
:10118E00991FAA1FBB1F892B8A2B8B2B19F350E09B
:10119E0040E030E82FEB04C050E040E030E020E0CB
:1011AE00652F742F832F922F28960FB6F894DEBFDB
:1011BE000FBECDBFDF91CF91FF90EF90DF90CF901C
:1011CE00BF90AF909F908F907F906F905F904F9059
:0211DE00089572
:1011E00010C00E94F60E58F00E94EF0E40F029F455
:1011F0005F3F29F00C94110F51110C94FE0E0C94CA
:101200002E0F0E942C0D68F39923B1F3552391F30F
:10121000951B550BBB27AA2762177307840738F065
:101220009F5F5F4F220F331F441FAA1FA9F335D0C2
:101230000E2E3AF0E0E832D091505040E695001C76
:10124000CAF72BD0FE2F29D0660F771F881FBB1F30
:10125000261737074807AB07B0E809F0BB0B802D0E
:10126000BF01FF2793585F4F3AF09E3F510578F03A
:101270000C94110F0C94FE0E5F3FE4F3983ED4F3F0
:10128000869577956795B795F7959F5FC9F7880F0E
:10129000911D9695879597F90895E1E0660F771F60
:1012A000881FBB1F621773078407BA0720F0621BF1
:0E12B000730B840BBA0BEE1F88F7E0950895C0
:1012BE000FC00E94EF0E38F00E94F60E20F095231C
:1012CE0011F00C94110F0C942E0F11240C94FE0E91
:1012DE000E942C0D70F3959FC1F3950F50E0551F92
:1012EE00629FF001729FBB27F00DB11D639FAA276D
:1012FE00F00DB11DAA1F649F6627B00DA11D661FBC
:10130E00829F2227B00DA11D621F739FB00DA11DDC
:10131E00621F839FA00D611D221F749F3327A00D96
:10132E00611D231F849F600D211D822F762F6A2F32
:10133E0011249F5750409AF0F1F088234AF0EE0F97
:10134E00FF1FBB1F661F771F881F91505040A9F7C4
:10135E009E3F510580F00C94110F0C94FE0E5F3FD2
:10136E00E4F3983ED4F3869577956795B795F79500
:10137E00E7959F5FC1F7FE2B880F911D9695879578
:04138E0097F908952E
:1013920011C00E94EF0E38F00E94F60E20F039F4D0
:1013A2009F3F19F426F40C942E0F0EF4E095E7FB00
:1013B2000C94110FE92F0E942C0D58F3BA176207F3
:1013C20073078407950720F079F4A6F50C94FD0EB7
:1013D2000EF4E0950B2EBA2FA02D0B01B90190014E
:1013E2000C01CA01A0011124FF27591B99F0593F92
:1013F20050F4503E68F11A16F040A22F232F342FDA
:101402004427585FF3CF469537952795A795F04027
:101412005395C9F77EF41F16BA0B620B730B840B3C
:10142200BAF09150A1F0FF0FBB1F661F771F881FF4
:10143200C2F70EC0BA0F621F731F841F48F487954C
:1014420077956795B795F7959E3F08F0B0CF93953E
:0E145200880F08F09927EE0F9795879508955B
:101460001F920F920FB60F9211242F933F934F9319
:101470005F936F937F938F939F93AF93BF93EF93FC
:10148000FF938091CE0080930801833211F5E091A3
:101490006901F0E0E75FFE4F108210926901E9E018
:1014A000F1E0A7E2B1E027E231E081918D93E2170C
:1014B000F307D9F78091670190916801892B11F0AA
:1014C0000E94D30681E090E09093680180936701C9
:1014D0000AC0E091690191E09E0F90936901F0E0EC
:1014E000E75FFE4F8083FF91EF91BF91AF919F9196
:1014F0008F917F916F915F914F913F912F910F90BD
:081500000FBE0F901F9018951B
:101508006F927F928F92EF92FF920F931F93CF93D8
:10151800DF93CDB7DEB761970FB6F894DEBF0FBE85
:10152800CDBFFE01319651E1DF011D925A95E9F7D1
:10153800A2E0B1E0BA83A9839C838B8377FF09C0BB
:101548008FE490E090936401809363018FEF9FEFA5
:1015580019C03901842E7C01615071097F836E8323
:101568009801682DA301CF010E94FB0D488559857C
:101578002E813F814217530708F49A01F701E20FC1
:10158800F31F108261960FB6F894DEBF0FBECDBF71
:10159800DF91CF911F910F91FF90EF908F907F90E7
:0415A8006F900895A3
:1015AC00CF92DF92EF92DC0190E0292F30E0220FF6
:1015BC00331F6901032E000CEE086E2DA601475B4C
:1015CC005E4F6F4F6A01E62EFA018491E7FC808131
:1015DC0081110DC02F5F3F4F032E000C440B275B76
:1015EC003E4F4F4FF901849147FD808124C0CD902F
:1015FC00DD90EC901297F6014491E7FC4081841346
:10160C0015C02F5F3F4F032E000C440B275B3E4F42
:10161C004F4FF901949147FD90815FEFC51AD50AA0
:10162C00E50ACD92DD92EC92129701C09F5F9B3040
:0E163C0008F4BBCF892FEF90DF90CF90089578
:10164A006F927F928F92AF92BF92CF92DF92EF9278
:10165A00FF920F931F93CF93DF935C013A01862E7B
:10166A00E901670181E0C822DD24E0FC03C02017FC
:10167A00310758F09E01682DA301C5010E947C0C18
:10168A00C017D10710F0CE0118C07801EC1AFD0A74
:10169A00E114F10449F0B50180E290E00E94BA0B2E
:1016AA0081E0E81AF108F4CFCD2831F49E01682DC3
:1016BA00A301C5010E947C0CC801DF91CF911F9143
:1016CA000F91FF90EF90DF90CF90BF90AF908F90E7
:0616DA007F906F9008955F
:1016E000A3E8B0E0E6E7FBE00C94960D5C0149014D
:1016F000CF57DF4F488359836A83C158D040C12CEC
:10170000D12CCF57DF4F2881C158D040CE57DF4F63
:101710009881C258D040CD57DF4F8881C358D04000
:10172000E22FF92F949187FD90819923E9F07401BC
:10173000860120E830E0AE014F5F5F4FBE016F577A
:101740007F4FC5010E9467048C0D9D1D8C159D0562
:101750004CF48FE490E090936401809363018FEFE9
:101760009FEF03C06C01CDCFC601CD57DF4FECE03A
:041770000C94CD0DFB
:101774000F931F93CF93DF93DB012D913C9111972E
:1017840030FF25C017964D915C91189715962D91B1
:101794003C9116974217530778F41296ED91FC91F9
:1017A4001397808312962D913C9113972F5F3F4F8F
:1017B40013963C932E93129717962D913C9118975C
:1017C4002F5F3F4F18963C932E93179715C01D9685
:1017D400ED91FC911E97309719F48FEF9FEF0CC099
:1017E4008B01EC010995892BC1F7F801878190855C
:1017F400019690878783CE01DF91CF911F910F913E
:02180400089545
:10180600E89409C097FB3EF4909580957095619594
:101816007F4F8F4F9F4F9923A9F0F92F96E9BB274A
:101826009395F695879577956795B795F111F8CFC6
:10183600FAF4BB0F11F460FF1BC06F5F7F4F8F4F31
:101846009F4F16C0882311F096E911C0772321F027
:101856009EE8872F762F05C0662371F096E8862FBF
:1018660070E060E02AF09A95660F771F881FDAF716
:0A187600880F9695879597F908955D
:10188000DC012D913D914C911297F901849147FD16
:1018900080818A3221F080E090E07AE011C02F5FF1
:1018A0003F4F4F4F2D933D934C93DB01ED91FC91B6
:1018B0001197CF0102968D939C9380819181089519
:1018C0002D913D914C911297F901549147FD508112
:1018D00050535A3080F4789FF001799FF00D112415
:1018E000CF01850F911D2F5F3F4F4F4F2D933D939C
:0818F0004C931297E5CF089517
:1018F8006F927F928F92CF92DF92EF920F931F9306
:10190800CF93DF938C016A01E62EE9013A01862E16
:10191800620E731E811C37FD8A94C614D704E8042E
:1019280079F0F6018491E7FC8081B801082E000C5B
:10193800990B0E94BA0B8FEFC81AD80AE80AEDCFA4
:10194800CE01DF91CF911F910F91EF90DF90CF9053
:081958008F907F906F900895BD
:101960000E94340D88F09F5798F0B92F9927B751EE
:10197000B0F0E1F0660F771F881F991F1AF0BA9533
:10198000C9F714C0B13091F00E94FD0EB1E0089586
:101990000C94FD0E672F782F8827B85F39F0B93F78
:1019A000CCF3869577956795B395D9F73EF49095E6
:0E19B0008095709561957F4F8F4F9F4F0895E2
:1019BE00DC01CB01880F991FAA1FBB1F880F991F2F
:1019CE00AA1FBB1F9C01AD01220F331F441F551FC1
:1019DE00220F331F441F551F60E074E284EF90E026
:1019EE000E944E0D215031093093CD002093CC0032
:1019FE001092C80088E98093C90086E08093CA00DF
:021A0E00089539
:101A1000990F0008550FAA0BE0E8FEEF16161706FF
:101A2000E807F907C0F012161306E407F50798F067
:101A3000621B730B840B950B39F40A2661F0232B80
:101A4000242B252B21F408950A2609F4A140A695FC
:081A50008FEF811D811D089537
:101A580057FD9058440F551F59F05F3F71F0479557
:101A6800880F97FB991F61F09F3F79F0879508953C
:101A7800121613061406551FF2CF4695F1DF08C05B
:101A8800161617061806991FF1CF86957105610578
:041A98000894089511
:101A9C00A1E21A2EAA1BBB1BFD010DC0AA1FBB1F66
:101AAC00EE1FFF1FA217B307E407F50720F0A21BD8
:101ABC00B30BE40BF50B661F771F881F991F1A9445
:101ACC0069F760957095809590959B01AC01BD016F
:041ADC00CF01089599
:101AE000FA0160387105CCF0623871051CF063387A
:101AF000710599F4A081B1819D012C5F3F4F318325
:101B000020834D915D916D917C91FC0140835183C7
:101B10006283738381E090E0089580E090E008950F
:101B20002F923F924F925F926F927F928F929F92ED
:101B3000AF92BF92CF92DF92EF92FF920F931F93DB
:101B4000CF93DF93CDB7DEB7CA1BDB0B0FB6F8948C
:081B5000DEBF0FBECDBF0994FA
:101B5800CF92DF92EF926B01E82EFB018491E7FCB4
:101B68008081882361F00E94CA0E8FEFC81AD80AB4
:101B7800E80AF6018491E7FC80818111F4CFEF90A7
:061B8800DF90CF900895EC
:101B8E002A88398848885F846E847D848C849B84FF
:101B9E00AA84B984C884DF80EE80FD800C811B810D
:101BAE00AA81B981CE0FD11D0FB6F894DEBF0FBE3C
:061BBE00CDBFED0108950A
:101BC400CF92DF92EF926A01E62EDC01280F391FD3
:101BD400A217B30751F0F6014491E7FC40814D93FD
:101BE4004FEFC41AD40AE40AF3CFEF90DF90CF90FA
:021BF400089552
:101BF600A2E0B0E0E1E0FEE00C949E0D8C013A8399
:101C060029839E012F5F3F4F0E94700BF8012081B0
:101C160024FF02C08FEF9FEF2296E4E00C94D50DCF
:101C2600CF92DF92EF926B01E82EA82FCB01FC0139
:101C36002491A7FD2081222319F00196A11DF7CF3B
:0C1C46008C199D09EF90DF90CF9008955D
:101C5200ECE7F0E09081987F8770892B8083EAE738
:101C6200F0E0808180648083808186FDFDCF809159
:081C72007800909179000895BB
:101C7A0097FB072E16F4009407D077FD09D00E942F
:101C8A00510E07FC05D03EF4909581959F4F08951B
:081C9A00709561957F4F0895DC
:101CA200AA1BBB1B51E107C0AA1FBB1FA617B70780
:101CB20010F0A61BB70B881F991F5A95A9F780959C
:081CC2009095BC01CD010895CD
:101CCA00F89460E875E280E090E00E94DF0C0E94E0
:101CDA00E10E81E090E09093680180936701789427
:061CEA000E94B307FDCFCC
:101CF000A0E0B0E0EEE7FEE00C94A00D9E01265FB0
:101D00003F4F4F81588569858D819E810E94AA0E23
:061D1000E2E00C94D70D87
:101D1600092E0394000C11F4882352F0BB0F40F4F3
:101D2600BF2B11F460FF04C06F5F7F4F8F4F9F4F33
:021D360008950E
:101D38009A01462FDC01F901549147FD50815D93CA
:0C1D48002F5F3F4F4F4F5111F6CF089511
:101D54000F931F9389019A01462F6FEF7FE70E942B
:081D6400840A1F910F910895FC
:101D6C00EC010E94360F0E94350FCE010E94370FF6
:061D7C00CE010E94330FAE
:101D8200FC01480F591FE417F50711F06193FBCFCF
:021D92000895B2
:101D9400E8ECF0E0908195FFFDCF8093CE000895AC
:101DA4009C01215431092A31310508F480620895D7
:0E1DB40080E480937C0080E880937A0008959C
:0E1DC2000E940B0F0E94170F0E94DA0E089568
:0E1DD0005058BB27AA270E94C9090C948B0EFD
:0E1DDE0000240A941616170618060906089522
:0E1DEC0000240A941216130614060506089524
:0E1DFA00E894BB2766277727CB0197F9089559
:0E1E08000E94B00C6894B1110C94FE0E089567
:0C1E1600E1E6F0E080E88083108208958F
:0C1E220097F99F6780E870E060E0089589
:0A1E2E008098209A539A5298089564
:0A1E38000E94080D08F481E00895EF
:0A1E42000E94080D08F48FEF0895C8
:081E4C000E94F0080C948B0EBB
:081E54000E945F090C948B0E43
:061E5C009FEF80EC0895E9
:041E62000C940000DC
:041E66000E9487004F
:021E6A000895D9
:021E6C000895D7
:021E6E000895D5
:021E700001006F
:021E720001006D
:00000001FF
