:100000000C9456000C9429010C9429010C9429019C
:100010000C9429010C9429010C9429010C942901B8
:100020000C9429010C9429010C9429010C942901A8
:100030000C9429010C9429010C9429010C94290198
:100040000C9429010C9429010C9429010C94290188
:100050000C9429010C9429010C9429010C94290178
:100060000C9429010C9429010C9429010C94290168
:100070000C9429010C9429010C9429010C94290158
:100080000C9429010C9429010C9429010C94290148
:100090000C9429010C9429010C9429010C94290138
:1000A0000C9429010C9429010C94290111241FBEE0
:1000B000CFEFDAE0DEBFCDBFECEAF0E040E017C002
:1000C000B591A59135912591059107FD0CC09591AC
:1000D0008591EF01F92FE82F05900D92A217B30734
:1000E000D9F7FE0104C01D92A217B307E1F7EC3A5D
:1000F000F40731F70E94B3000C941601F894FFCF77
:100100004C6564206F66662020004C6564206F6E2D
:03011000202000AC
:10011400DC01CB01880F991FAA1FBB1F880F991FF1
:10012400AA1FBB1F9C01AD01220F331F441F551F83
:10013400220F331F441F551F60E074E284EF90E0E8
:100144000E94D900215031093093CD002093CC0076
:100154001092C80088E98093C90086E08093CA00A1
:020164000895FC
:10016600259A60E875E280E090E00E948A002D9A68
:1001760060E071E080E00E94FB002FEF8EE994E2E0
:10018600215080409040E1F700C000006AE071E035
:1001960080E00E94FB002D982FEF8EE994E221501B
:0C01A60080409040E1F700C00000E1CF75
:1001B200A1E21A2EAA1BBB1BFD010DC0AA1FBB1F69
:1001C200EE1FFF1FA217B307E407F50720F0A21BDB
:1001D200B30BE40BF50B661F771F881F991F1A9448
:1001E20069F760957095809590959B01AC01BD0172
:0401F200CF0108959C
:1001F600CF92DF92EF926B01E82EFB018491E7FC30
:100206008081882361F00E9421018FEFC81AD80AE5
:10021600E80AF6018491E7FC80818111F4CFEF9022
:06022600DF90CF90089567
:10022C00EC010E942E010E942D01CE010E942F0193
:06023C00CE010E942B011F
:10024200E8ECF0E0908195FFFDCF8093CE00089519
:040252000C94000008
:040256000E947E0084
:02025A00089505
:02025C00089503
:02025E00089501
:00000001FF
