:020000040000FA
:0400000011EF00F00C
:100008000182F0A00AEF00F00CEF00F00FEF00F013
:10001800F090040E8B1A0192110028EF00F035ECD5
:1000280000F02DEC00F032EC00F022EC00F01200B1
:1000380013EC00F01EEF00F011EF00F0F18AF19ED2
:10004800F08CF086F09012000190019200011CEFF4
:1000580000F0000E946E000E8B6E1200F28EF28C81
:080068001200760ED36E1200A7
:020000040020DA
:08000000FFFFFFFFFFFFFFFF00
:020000040030CA
:0E00000000255F3FFFD385FF0FC00FE00F40CC
:00000001FF
